:100000007FC10000ADC10000ABC10000A9C100006C
:10001000A7C10000A5C10000A3C10000A1C100004C
:100020009FC100009DC100009BC1000099C100005C
:1000300097C1000095C1000093C1000091C100006C
:100040008FC100008DC100008BC1000089C100007C
:1000500087C1000085C1000083C1000035C60000D3
:100060007FC10000FBC50000D0C5000079C10000C1
:1000700077C1000075C1000073C1000071C10000AC
:100080006FC100006DC100006BC1000069C10000BC
:1000900067C1000065C1000063C1000061C10000CC
:1000A0005FC100005DC100005BC1000059C10000DC
:1000B00057C1000055C1000053C1000051C10000EC
:1000C0004FC100004DC100004BC1000049C10000FC
:1000D00047C1000045C1000043C1000041C100000C
:1000E0003FC1000000407A10F35A00A0724E180978
:1000F0000010A5D4E80000E87648170000E40B548F
:10010000020000CA9A3B000000E1F505000080965D
:100110009800000040420F000000A086010000008F
:10012000102700000000E803000000006400000049
:1001300000000A00000000000100000000002C7612
:10014000D888DC674F0823DFC1DFAE59E1B1B7962D
:10015000E5E3E453C63AE651997696E8E6C284268A
:10016000EB898C9B62ED407C6FFCEFBC9C9F40F266
:10017000BAA56FA5F490055A2AF75C936B6CF967E2
:100180006DC11BFCE0E40D47FEF520E6B500D0EDA7
:10019000902E0300943577050080841E080000200F
:1001A0004E0A000000C80C333333330F986E1283AD
:1001B0001141EF8D2114893BE65516CFFEE6DB1881
:1001C000D1844B381BF77C1D901DA4BBE424203246
:1001D00084725E228100C9F124ECA1E53D27000074
:1001E00020002300260029002C002F0032000001EF
:1001F000000003010601090100002100240027007E
:100200002A002D0030003300010100000401070125
:100210000A0100002200250028002B002E003100DA
:10022000340002010000050108010B010505050568
:10023000070508080808020202020A0A080804045E
:10024000040401010101010101010303030303038C
:100250000303040707070C0C0C0C0C0C0C0C02021B
:10026000020206060606060606060B0B0B0B0B0B18
:100270000B0B0102102020080810204010204080A5
:10028000020102010804020101020408102040805A
:1002900080402010080402018004020180402010E8
:1002A0000804020108040201010204081020408031
:1002B000010204081020408000000A0B02090C0D06
:1002C0000E08070304010000000000000000000009
:1002D000000000000000000000000000000000001E
:1002E00000000000121110000000000000000000DB
:1002F0000000000000000000000000000000AE064A
:1003000011241FBECFEFD1E2DEBFCDBF00E00CBF96
:1003100023E0ACE4B2E001C01D92A139B207E1F7DD
:1003200012E0A0E0B2E0ECE7FEE100E00BBF02C0AB
:1003300007900D92AC34B107D9F711E0C0E8D1E0D5
:1003400000E006C021970109802FFE010E94230DC5
:10035000CF37D10780E00807A9F73FD50C943C0FB1
:100360004FCEEFE8F2E0A089B18982E08C93A485BA
:10037000B5851C92A685B78580E18C93108EA489E3
:10038000B58986E08C93A289B3898C9180618C9326
:10039000A289B3898C9188608C93A289B3898C914E
:1003A00080688C930288F389E02D80818F7D808323
:1003B0000895AF92BF92CF92DF92EF92FF920F9388
:1003C0001F93CF93DF936C017B018B01040F151FEB
:1003D000EB015E01AE18BF08C017D10759F0699153
:1003E000D601ED91FC910190F081E02DC6011995A7
:1003F000892B79F7C501DF91CF911F910F91FF9064
:10040000EF90DF90CF90BF90AF900895FC01538D97
:10041000448D252F30E0842F90E0821B930B5417DE
:1004200010F0CF96089501970895FC01918D828D6B
:10043000981761F0A28DAE0FBF2FB11D5D968C9104
:10044000928D9F5F9F73928F90E008958FEF9FEF43
:100450000895FC01918D828D981731F0828DE80FFF
:10046000F11D858D90E008958FEF9FEF0895FC01B9
:10047000918D228D892F90E0805C9F4F821B910986
:100480008F73992708958FE892E0F1DF21E0892B9F
:1004900009F420E0822F0895FC01A48DA80FB92F44
:1004A000B11DA35ABF4F2C91848D90E001968F739C
:1004B0009927848FA689B7892C93A089B1898C91BB
:1004C000837080648C93938D848D981306C002880A
:1004D000F389E02D80818F7D80830895EF92FF92D4
:1004E0000F931F93CF93DF93EC0181E0888F9B8D57
:1004F0008C8D98131AC0E889F989808185FF15C011
:100500009FB7F894EE89FF896083E889F989808133
:100510008370806480839FBF81E090E0DF91CF9102
:100520001F910F91FF90EF900895F62E0B8D10E024
:100530000F5F1F4F0F731127E02E8C8D8E110BC094
:100540000FB607FCFACFE889F989808185FFF5CFDE
:10055000CE01A2DFF2CFEB8DEC0FFD2FF11DE35AA0
:10056000FF4FF0829FB7F8940B8FEA89FB89808157
:100570008062D0CFCF93DF93EC01888D8823B1F0D8
:10058000AA89BB89E889F9898C9185FD03C080819E
:1005900086FD0CC00FB607FCF7CF8C9185FFF2CF1C
:1005A000808185FFEDCFCE0177DFEACFDF91CF915C
:1005B000089580E090E0892B21F065DF81110E9491
:1005C000000080E090E0892B49F080E090E0892BEA
:1005D00029F00E94000081110E94000080E090E05C
:1005E000892B49F080E090E0892B29F00E940000DF
:1005F00081110E94000080E090E0892B49F080E0AA
:1006000090E0892B29F00E94000081110C940000D9
:1006100008958150823108F05AC0E82FF0E0882711
:10062000EB5EFC4F8F4F0C94230D350339032703EA
:100630002D03310367033C03420346034C0350037D
:1006400054035A035E036703620368036C038091DB
:1006500080008F77809380000895809180008F7D47
:10066000F9CF80918000877FF5CF84B58F7784BDE7
:10067000089584B58F7DFBCF8091B0008F778093F4
:10068000B00008958091B0008F7DF9CF80919000E7
:100690008F77809390000895809190008F7DF9CF9F
:1006A00080919000877FF5CF8091A0008F77809315
:1006B000A00008958091A0008F7DF9CF8091A000C7
:1006C000877FF5CF809120018F7780932001089557
:1006D000809120018F7DF9CF80912001877FF5CF18
:1006E0001F93CF93DF93282F30E0F901E854FD4F9B
:1006F0008491F901EE58FD4FD491F901E45DFD4F6D
:10070000C491CC23A1F0162F811183DFEC2FF0E0F0
:10071000EE0FFF1FEE5EFD4FA591B4918FB7F894D9
:10072000EC91111108C0D095DE23DC938FBFDF91CF
:10073000CF911F910895DE2BF8CFCF93DF9390E0F8
:10074000FC01EE58FD4F2491845D9D4FFC01849186
:100750008823D1F090E0880F991FFC01E850FE4FEC
:10076000A591B491FC01EE5EFD4FC591D49162302C
:1007700071F49FB7F8943C91822F809583238C93DA
:10078000E8812E2B28839FBFDF91CF9108958FB7EB
:10079000F894EC912E2B2C938FBFF6CF3FB7F894A3
:1007A0008091630290916402A0916502B09166020B
:1007B00026B5A89B05C02F3F19F00196A11DB11DBC
:1007C0003FBFBA2FA92F982F8827BC01CD01620FF8
:1007D000711D811D911D42E0660F771F881F991FB3
:1007E0004A95D1F708958F929F92AF92BF92CF9280
:1007F000DF92EF92FF926B017C01D0DF4B015C0135
:10080000C114D104E104F104B1F0C8DF6819790919
:100810008A099B09683E73408105910588F321E0B0
:10082000C21AD108E108F10888EE880E83E0981E0C
:10083000A11CB11CE5CFFF90EF90DF90CF90BF904F
:10084000AF909F908F9008952FB7F89460915F02BA
:100850007091600280916102909162022FBF0895B1
:10086000BF92CF92DF92EF92FF920F931F93CF939D
:10087000DF938C01C8E0D0E0D12C9FE0E92EF12C71
:1008800061E0F80180812CDFC7010197F1F7DD0CF1
:10089000F801228130E0F901E854FD4F8491F9011B
:1008A000EE58FD4FC490F901E45DFD4FB490BB20BC
:1008B00079F08111AEDEEB2DF0E0EE0FFF1FE2527A
:1008C000FE4FA591B491EC91CE2211F06894D0F82E
:1008D00060E0F801808104DF219709F0D1CF83E740
:1008E00090E00197F1F78D2DDF91CF911F910F913E
:1008F000FF90EF90DF90CF90BF900895CF92DF925E
:10090000FF920F931F93CF93DF93EC01F62E61E0DC
:100910008A8113DF08E010E0CF2CD12C8A8161E0BE
:10092000F0FE60E0DDDED594C794FC2C61E08881A8
:10093000D7DE60E08881D4DE0150110969F783E7D2
:1009400090E00197F1F762E08A81DF91CF911F91EA
:100950000F91FF90DF90CF90F0CECF92DF92EF9289
:10096000FF920F931F93CF93DF938C0160E0FC0104
:100970008181B6DE65E5C801C1DF6FEFC801BEDF6A
:10098000C8016EDFC82FC8016BDFD0E0DC2FCC2799
:10099000C80FD11DC80164DFF82EC80161DF2F2DFB
:1009A00030E0322F2227820F932F911D8C0F9D1F35
:1009B0000196E9F5CE01837099278230910511F5F2
:1009C0005EEFC52EDD24DA94ED2CFD2CC4FD04C0B1
:1009D000CC24CA94DC2C7601C5FF06C03DEFC32EA3
:1009E000DD24DA94ED2CFD2C61E0F801818178DEC4
:1009F000C601DF91CF911F910F91FF90EF90DF9093
:100A0000CF900895019799F49E01369527953695D4
:100A10002795A0E1BEE00E94140D6B017C012EE041
:100A2000F594E794D794C7942A95D1F7DDCFCC24D9
:100A3000CA94DC2C7601D8CFCF93DF93EC01862FBC
:100A4000698348832A8361E078DE61E0888175DE0E
:100A500061E08A81DF91CF9170CEFC01019000208E
:100A6000E9F73197AF01481B590BBC018FE892E0C1
:100A7000A0CC8F929F92AF92BF920F931F93CF9370
:100A8000DF93CDB7DEB7A1970FB6F894DEBF0FBEE8
:100A9000CDBF19A2423008F44AE08E010F5D1F4F0E
:100AA000842E912CB12CA12CA50194019BD7E62F6B
:100AB000B901CA01EA30ECF4E05DD801EE938D0192
:100AC000232B242B252B81F790E080E0109711F049
:100AD000CD01C3DFA1960FB6F894DEBF0FBECDBF28
:100AE000DF91CF911F910F91BF90AF909F908F900A
:100AF0000895E95CE2CF0F931F93CF93DF93EC014E
:100B000088819981009759F02A813B812617370700
:100B100030F081E0DF91CF911F910F9108958B010B
:100B20006F5F7F4F0E94500E009759F09983888322
:100B30001B830A832C813D81232B59F7FC011082F2
:100B4000E8CF80E0E7CFEF92FF920F931F93CF9310
:100B5000DF936115710541F480E0DF91CF911F9122
:100B60000F91FF90EF90089541155105A9F07B0179
:100B7000EC010C811D81040F151FB801BCDF882317
:100B800059F3288139818C819D81B701820F931F90
:100B90000E94350F1D830C8381E0DFCFCF93DF935D
:100BA000EC0188819981009709F0F1D719821882A8
:100BB0001D821C821B821A82DF91CF910895EF92D1
:100BC000FF920F931F93CF93DF93EC017B018A0178
:100BD000BA0191DF81110AC0CE01E0DFCE01DF91C1
:100BE000CF911F910F91FF90EF9008951D830C837B
:100BF000B701888199810E94350FF0CFFC01808177
:100C00009181009709F0C3C708951F920F920FB604
:100C10000F9211240BB60F922F933F934F935F9334
:100C20006F937F938F939F93AF93BF93EF93FF93B4
:100C30008FE892E031DCFF91EF91BF91AF919F91EE
:100C40008F917F916F915F914F913F912F910F9075
:100C50000BBE0F900FBE0F901F9018951F920F9212
:100C60000FB60F9211240BB60F922F938F939F9371
:100C7000EF93FF93E0919F02F091A0028081E091B9
:100C8000A502F091A60282FD1DC090818091A8026C
:100C90008F5F8F732091A902821741F0E091A80223
:100CA000F0E0E157FD4F958F8093A802FF91EF91FF
:100CB0009F918F912F910F900BBE0F900FBE0F90B1
:100CC0001F9018958081F2CF1F920F920FB60F924E
:100CD00011242F933F938F939F93AF93BF93809152
:100CE0005F0290916002A0916102B0916202309126
:100CF0005E0223E0230F2D3758F50196A11DB11D8B
:100D000020935E0280935F0290936002A093610241
:100D1000B09362028091630290916402A091650297
:100D2000B09166020196A11DB11D8093630290935C
:100D30006402A0936502B0936602BF91AF919F9148
:100D40008F913F912F910F900FBE0F901F9018958C
:100D500026E8230F0296A11DB11DD2CFEFE8F2E0E5
:100D60001382128288EE93E0A0E0B0E08483958342
:100D7000A683B7838AE092E09183808385EC90E03C
:100D80009587848784EC90E09787868780EC90E055
:100D9000918B808B81EC90E0938B828B82EC90E046
:100DA000958B848B86EC90E0978B868B118E128EC0
:100DB000138E148EECE2F3E01682178210861186F1
:100DC000128613861486158616861786108A118A4F
:100DD000128A138A148A158A0895CF93DF93CDB7A8
:100DE000DEB7E3970FB6F894DEBF0FBECDBF7894A1
:100DF00084B5826084BD84B5816084BD85B5826020
:100E000085BD85B5816085BD80916E0081608093D0
:100E10006E00109281008091810082608093810039
:100E20008091810081608093810080918000816049
:100E3000809380008091B10084608093B1008091A4
:100E4000B00081608093B0008091910082608093B7
:100E50009100809191008160809391008091900039
:100E60008160809390008091A10082608093A100B6
:100E70008091A10081608093A1008091A000816099
:100E80008093A00080912101826080932101809154
:100E900021018160809321018091200181608093F4
:100EA000200180917A00846080937A0080917A009A
:100EB000826080937A0080917A00816080937A00CA
:100EC00080917A00806880937A001092C10010921D
:100ED0006E0310926F0310927003109271031092C0
:100EE0002E0310922F031092300310923103ACDCCA
:100EF0006B017C014B015C0128EB820E2BE0921E02
:100F0000A11CB11CA1DC6C157D058E059F0528F088
:100F100086169706A806B906A8F768EE73E080E083
:100F200090E061DC1EDA90DC60932E0370932F0357
:100F3000809330039093310388E192E08EDD84DC6E
:100F40006B017C014B015C013AE0830E911CA11CFA
:100F5000B11C7ADC6C157D058E059F0528F0861680
:100F60009706A806B906A8F781E080934203F9D94D
:100F700061E089E1E2DB61E086E1DFDB61E08CE1F9
:100F8000DCDB61E08BE1D9DB61E08FE1D6DB29E1DD
:100F900048E16AE387E893E04FDD26E147E16CE34F
:100FA00081E893E049DD2CE14DE16EE38BE793E0CE
:100FB00043DD2BE14BE161E485E793E03DDD2FE18B
:100FC0004EE160E487E893E037DD29E148E16BE337
:100FD0008AE893E031DD26E147E16DE384E893E0C0
:100FE0002BDD2CE14DE16FE38EE793E025DD2BE176
:100FF0004BE162E488E793E01FDD89E292E02DDDBA
:1010000083E392E02ADD34EF832E99249394A12C7C
:10101000B12C1ADC672B682B692B09F4CBC014DCCC
:1010200000918B0210918C0220918D0230918E02E2
:10103000601771078207930708F41DC200918B02A5
:1010400010918C0220918D0230918E026B017C01F7
:10105000C01AD10AE20AF30A970186010A3F110574
:101060002105310508F4ADC060938B0270938C02AA
:1010700080938D0290938E0280923A0390923B036C
:10108000A0923C03B0923D0310923E0310923F03A6
:1010900010924003109241038091320390913303E8
:1010A000A0913403B09135038093360390933703B6
:1010B000A0933803B0933903C7DB60933203709376
:1010C00033038093340390933503BEDB60932E0388
:1010D00070932F038093300390933103B5DB6B0142
:1010E0007C0186E392E0B9DC4AE061E070E080E0F8
:1010F00090E0BFDC8DE392E0B0DC4AE0C701B601CE
:10110000B8DC8FE392E0A9DC809132039091330345
:10111000A0913403B0913503A7019601281B390B28
:101120004A0B5B0BCA01B9014AE0A3DC8FE392E0F2
:1011300094DC609132037091330380913403909179
:101140003503009136031091370320913803309115
:101150003903601B710B820B930B4AE08ADC81E43C
:1011600092E07BDC71DB4AE084DC83E492E075DCB6
:1011700083E392E072DC68DB6B017C012B013C01B4
:1011800035E0430E511C611C711C5EDB6C157D0546
:101190008E059F0528F04616570668067906A8F7BB
:1011A00053DB609332037093330380933403909343
:1011B000350307C049DB623071058105910508F0F0
:1011C0002ECF64EF71E080E090E00DDB1FA61EA63D
:1011D00019AA18AA1BAA1AAA50E040E065E372E017
:1011E000CE018E96ECDC10E000E087E893E0B5DB02
:1011F000BC01990F880B990BBAD3F801EE0FFF1FB2
:10120000EE0FFF1FE959FD4F608371838283938343
:1012100078014FEFE41AF40A81E893E09EDBBC0109
:10122000990F880B990BA3D3F701EE0FFF1FEE0F59
:10123000FF1FE959FD4F6083718382839383780197
:1012400052E0E50EF11C8BE793E087DBBC01990FC0
:10125000880B990B8CD3F701EE0FFF1FEE0FFF1FCA
:10126000E959FD4F6083718382839383780183E022
:10127000E80EF11C85E793E070DBBC01990F880B49
:10128000990B75D3F701EE0FFF1FEE0FFF1FE95902
:10129000FD4F60837183828393837801E4E0EE0ED7
:1012A000F11C82E793E059DBBC01990F880B990B85
:1012B0005ED3EE0CFF1CEE0CFF1C970129593D4F2D
:1012C0007901F90160837183828393838AE893E0D3
:1012D00044DBBC01990F880B990B49D3F70160835C
:1012E0007183828393837801F5E0EF0EF11C84E82B
:1012F00093E033DBBC01990F880B990B38D3F701CE
:10130000EE0FFF1FEE0FFF1FE959FD4F6083718342
:1013100082839383780126E0E20EF11C8EE793E04E
:101320001CDBBC01990F880B990B21D3F701EE0F41
:10133000FF1FEE0FFF1FE959FD4F6083718382830A
:101340009383780137E0E30EF11C88E793E005DB37
:10135000BC01990F880B990B0AD3F701EE0FFF1F01
:10136000EE0FFF1FE959FD4F6083718382839383E2
:10137000085F1F4F0031110509F037CFF12CE12C28
:1013800019A618A61BA61AA61DA61CA641E050E089
:101390006AE472E0CE01889612DCF701EE0FFF1FBF
:1013A000EE0FFF1FE959FD4F6081718182819381AA
:1013B0001BA21AA21DA21CA21FA21EA28E010F5FB9
:1013C0001F4F22E044E064D0009709F45DC0FC01A7
:1013D00001900020E9F73197AF01481B590BBC0180
:1013E000CE018296ECDB1A8219821C821B821E823D
:1013F0001D826AA17BA16115710529F04EA15FA133
:10140000CE010196DCDB4CA55DA568A579A5CE01D2
:10141000019699DB811103C0CE010196BFDB4D819E
:101420005E8169817A81CE018E968DDBCE01019637
:10143000E5DBCE018296E2DBCE018896DFDB4FEF63
:10144000E41AF40A59E0E516F10409F099CF41E0F5
:1014500050E064E372E0CE018E9675DB4AA95BA989
:101460006EA57FA58FE892E00E94D901CE018E96ED
:10147000C5DB9FD8CECD60938B0270938C02809396
:101480008D0290938E02DACDCE01829687DBABCFB0
:10149000EF920F931F93CF93DF93E80134E047FD62
:1014A00034E1042E000C550B57FF03C051954195B4
:1014B0005109E32E022F242FAE0107D0CE01DF9178
:1014C000CF911F910F91EF9008958F929F92AF92BD
:1014D000BF92CF92DF92EF92FF920F931F93CF9321
:1014E000DF9300D000D000D0CDB7DEB76A01F22E76
:1014F000B02E102FFBE3AF2EA01608F41BE31F5FE6
:10150000012F27E0AE014F5F5F4F57D1BC018981AA
:10151000982F9970913009F44EC09BE2E1FC04C011
:101520009E2D9170E0FC49C05E2D5071E82FE8704F
:1015300083FF55C084E0911101C083E0EF2DE81BCB
:101540008F1508F0E0E0D6018E2F20E25523C9F177
:10155000992329F0D6019C93C60101966C0196014E
:101560002D5F3F4FE2FE33C08EE4D6018C9391E4B1
:1015700011969C93119712968C93D9018E2F90E21D
:1015800081112AC0E20FF32FF11D10828EEF9FEF21
:1015900029960FB6F894DEBF0FBECDBFDF91CF9175
:1015A0001F910F91FF90EF90DF90CF90BF90AF9081
:1015B0009F908F9008959DE2B7CF90E2B5CF2D9385
:1015C00081508111FCCFCE0ED11CE0E0C1CF8EE660
:1015D000D6018C9391E6CCCF9D938150D1CF482FEB
:1015E000447082FF3DC084E0911101C083E08F15FB
:1015F00010F4EF2DE81BD6018E2F20E2552309F1C0
:10160000992329F0D6019C93C60101966C0196019D
:101610002D5F3F4FE2FE1BC089E4D6018C938EE420
:1016200011968C93119786E412968C93D9018E2F84
:1016300090E2882309F4A6CF9D938150FACF2D9391
:1016400081508111FCCFCE0ED11CE0E0D9CF89E6CC
:10165000D6018C938EE611968C93119786E6E4CF93
:101660009B0177FF02C030E020E0A1E0B0E09111E3
:1016700002C0B0E0A0E0F9013196AE0FBF1F8B2C85
:10168000912CBB2009F461C05401EFEFAE1ABE0AE1
:10169000AA0DBB1DFA161B0619F014F04F2D4A1B9C
:1016A000511188C0E3FC59C07601A42FB0E2A1110A
:1016B0004FC0C40ED11C992309F45BC040E0D60191
:1016C0001196F60190836D01552309F448C0012F4E
:1016D000060F9A81582F507184FF03C0913309F48B
:1016E000015010160CF047C0093008F008E0EEE297
:1016F000FE2E5B01A01AB108850191948194910896
:101700002F3F320729F4D601FC92F60131966F0182
:101710006217730794F1021713077CF5DB01A21B14
:10172000B30BAA24A394B12CAC0EBD1EAA0DBB1DF5
:1017300011968C9121503109D60111962815390541
:10174000F4F0F60180836D01DBCFB12CA12CA0CF8A
:10175000F701B1937F01A150AACF9111B0CFD6016B
:10176000942F50E302C05D9391509111FCCFC40EB1
:10177000D11C40E0ACCF01E0BACF80E3DBCF6217F1
:10178000730731F4963388F4953311F4552369F0D7
:10179000F6018083FD01842F90E2811108C0A40F1F
:1017A000B11D1C9290E080E0F3CE81E3F1CF9193E4
:1017B0008150F3CF911183CF8ACF283008F027E0F2
:1017C0003327DA01990F311D87FD9160009661057D
:1017D000710539F432602E5F3D9330E32A95E1F7CD
:1017E00008959F3F30F080387105610509F03C5F36
:1017F0003C5F3D93913008F08068911DDF93CF935B
:101800001F930F93FF92EF92192F987F9695E92FD0
:1018100096959695E90FFF27E25CFE4F99273327AF
:10182000EE24FF24A701E70105900894079428F40B
:10183000360FE71EF81E491F511D660F771F881FC0
:10184000991F0694A1F70590079428F4E70EF81E57
:10185000491F561FC11D770F881F991F661F0694C9
:10186000A1F70590079428F4F80E491F561FC71FCB
:10187000D11D880F991F661F771F0694A1F7059049
:10188000079420F4490F561FC71FD81F990F661FD2
:10189000771F881F0694A9F784911095177041F05F
:1018A000D695C79557954795F794E7941A95C1F73C
:1018B000E4EEF0E06894159015913591659195915D
:1018C00005907FE27395E118F10A430B560BC90BA3
:1018D000D009C0F7E10CF11E431F561FC91FD01DD0
:1018E0007EF4703311F48A95E6CFE894015030F01D
:1018F000080F0AF40027021708F4202F2395022F5F
:101900007A3328F079E37D932A95E9F710C07D9327
:101910002A9589F6069497956795379517951794A4
:10192000E118F10A430B560BC90BD00998F0239527
:101930007E9173957A3308F070E37C932013B8F7A7
:101940007E9170617D9330F0839571E37D9370E3B8
:101950002A95E1F71124EF90FF900F911F91CF91FD
:10196000DF91992787FD90950895E89409C097FB2A
:101970003EF490958095709561957F4F8F4F9F4F66
:101980009923A9F0F92F96E9BB279395F6958795AA
:1019900077956795B795F111F8CFFAF4BB0F11F46D
:1019A00060FF1BC06F5F7F4F8F4F9F4F16C0882314
:1019B00011F096E911C0772321F09EE8872F762F4A
:1019C00005C0662371F096E8862F70E060E02AF08B
:1019D0009A95660F771F881FDAF7880F9695879577
:1019E00097F90895A1E21A2EAA1BBB1BFD010DC099
:1019F000AA1FBB1FEE1FFF1FA217B307E407F507BF
:101A000020F0A21BB30BE40BF50B661F771F881F9A
:101A1000991F1A9469F760957095809590959B0130
:101A2000AC01BD01CF010895A29FB001B39FC001D9
:101A3000A39F700D811D1124911DB29F700D811DFA
:101A40001124911D0895EE0FFF1F881F8BBF079073
:101A5000F691E02D19940F931F93CF93DF9382306B
:101A6000910510F482E090E0E0918F03F0919003F3
:101A700030E020E0B0E0A0E0309799F42115310586
:101A800009F44AC0281B390B24303105D8F58A8166
:101A90009B816115710589F1FB0193838283FE01AE
:101AA00011C0408151810281138148175907E0F02C
:101AB0004817590799F4109761F012960C931297F2
:101AC00013961C933296CF01DF91CF911F910F9106
:101AD000089500938F0310939003F4CF21153105DF
:101AE00051F04217530738F0A901DB019A01BD01FB
:101AF000DF01F801C1CFEF01F9CF909390038093FC
:101B00008F03CDCFFE01E20FF31F819391932250FB
:101B1000310939832883D7CF20918D0330918E03EB
:101B2000232B41F4209102023091030230938E0363
:101B300020938D032091000230910102211531057F
:101B400041F42DB73EB74091040250910502241B89
:101B5000350BE0918D03F0918E03E217F307A0F4AB
:101B60002E1B3F0B2817390778F0AC014E5F5F4FF3
:101B70002417350748F04E0F5F1F50938E03409394
:101B80008D03819391939FCFF0E0E0E09CCFCF93C2
:101B9000DF930097E9F0FC01329713821282A09143
:101BA0008F03B0919003ED0130E020E01097A1F495
:101BB00020813181820F931F20918D0330918E03FC
:101BC0002817390709F061C0F0938E03E0938D0365
:101BD000DF91CF910895EA01CE17DF07E8F54A813A
:101BE0005B819E0141155105B1F7E901FB83EA8351
:101BF00049915991C40FD51FEC17FD0761F48081FD
:101C000091810296840F951FE901998388838281CF
:101C100093819B838A83F0E0E0E012968D919C9102
:101C200013970097B9F52D913C911197CD0102962C
:101C3000820F931F20918D0330918E03281739074F
:101C400039F6309751F51092900310928F03B093AC
:101C50008E03A0938D03BCCFD383C2834081518177
:101C6000840F951FC817D90761F44E5F5F4F8881B5
:101C70009981480F591F518340838A819B819383A7
:101C800082832115310509F0B0CFF0939003E093E2
:101C90008F039ECFFD01DC01C0CF13821282D7CF0C
:101CA0004F925F926F927F928F929F92AF92BF926C
:101CB000CF92DF92EF92FF920F931F93CF93DF9318
:101CC0008C01009791F4CB01DF91CF911F910F917F
:101CD000FF90EF90DF90CF90BF90AF909F908F904C
:101CE0007F906F905F904F90B6CEFC01E60FF71F8C
:101CF0009C0122503109E217F30708F4AAC0D90168
:101D0000CD91DC911197C617D70718F1C530D105D1
:101D100070F0CE0104978617970748F0C61BD70BC3
:101D20002297C193D1936D937C93CF0130DFC8018B
:101D3000DF91CF911F910F91FF90EF90DF90CF90A7
:101D4000BF90AF909F908F907F906F905F904F90DB
:101D500008955B01AC1ABD0A4C018C0E9D1EA0912A
:101D60008F03B0919003512C412CF12CE12C109752
:101D700031F580918D0390918E038815990509F0B6
:101D80005CC04616570608F058C08091000290913A
:101D90000102009741F48DB79EB740910402509123
:101DA0000502841B950BE817F90708F052C0F09361
:101DB0008E03E0938D03F90171836083B8CF8D9119
:101DC0009C91119712966C90129713967C90139792
:101DD000A815B90559F56C0142E0C40ED11CCA140E
:101DE000DB0420F1AC014A195B09DA011296159760
:101DF00080F06282738251834083D9016D937C931A
:101E0000E114F10471F0D7011396FC93EE9312974D
:101E10008ECF22968C0F9D1FF90191838083F30151
:101E2000EFCFF0939003E0938F0381CF48165906CC
:101E300008F42C017D01D3019ACFCB010CDE7C018B
:101E4000009739F0AE01B80107D0C801A0DE8701C4
:101E50006ECF10E000E06BCFFB01DC0102C001900F
:101E60000D9241505040D8F70895FB01DC010190DC
:0C1E70000D920020E1F70895F894FFCFD8
:101E7C00000091038000000000006E02D9010602F0
:101E8C00BA02370215022902564D4450565F317C76
:101E9C00315F564D4450560A004D4F54494E544FE5
:101EAC004B2E000D0A00564D4450455F003A323A15
:0C1EBC00007C005F564D445045002C0097
:00000001FF
